:100000000C942A000C94A10F0C9447000C94470008
:100010000C944B060C9447000C9406070C9444096E
:100020000C9447000C9447000C94980B0C944700D8
:100030000C9447000C9447000C9447000C94470024
:100040000C9447000C9447000C9447000C94470014
:100050000C94470011241FBECFE5D8E0DEBFCDBF12
:1000600011E0A0E6B0E0ECECF5E502C005900D92E1
:10007000A035B107D9F711E0A0E5B1E001C01D92AC
:10008000AB37B107E1F70E94F1290C94E42A0C94F4
:100090000000EF92FF920F931F937B018C0120E0F1
:1000A00030E040E05FE40E94490388238CF0C801FF
:1000B000B70120E030E040E05FE40E94C1010E940F
:1000C000A9039B01AC01205030404040504806C07D
:1000D000C801B7010E94A9039B01AC01B901CA0183
:1000E0001F910F91FF90EF900895A0E0B0E0EBE733
:1000F000F0E00C94AD2ADC012B01FA019C919230C6
:1001000008F439C1EB018881823008F433C194309E
:1001100069F4843009F02FC111969C91119789815F
:10012000981709F428C1A0E6B0E025C1843009F48D
:1001300021C18230A9F4923009F01DC19A01AD01AC
:1001400088E0EA010990AE01E90109929E0181501F
:10015000C1F7E201898111969C918923818308C1AD
:10016000923009F407C112962D903C901397EB0141
:100170008A819B811496AD90BD90CD90DC901797AD
:10018000EC80FD800E811F819101281B390BB90184
:1001900037FF04C066277727621B730B6032710537
:1001A0000CF061C0121613066CF537014801062EDB
:1001B00004C096948794779467940A94D2F721E0C8
:1001C00030E040E050E004C0220F331F441F551FB1
:1001D0006A95D2F721503040404050402E213F21B7
:1001E00040235123211531054105510521F021E01E
:1001F00030E040E050E079018A01E628F72808293C
:1002000019293CC0232BD1F1260E371E350146019A
:10021000062E04C096948794779467940A94D2F734
:1002200021E030E040E050E004C0220F331F441FC3
:10023000551F6A95D2F721503040404050402A2146
:100240003B214C215D21211531054105510521F04E
:1002500021E030E040E050E059016A01A628B728CB
:10026000C828D9280BC0821593052CF01C01AA249C
:10027000BB24650103C0EE24FF24870111969C91E5
:10028000D20111968C91981709F445C0992339F041
:10029000A80197012A193B094C095D0906C0A6016E
:1002A00095012E193F09400B510B57FD08C01182D3
:1002B0003382228224833583468357831DC081E0A5
:1002C00081833382228288279927DC01821B930B4A
:1002D000A40BB50B84839583A683B7830DC0220F2F
:1002E000331F441F551F24833583468357838281E0
:1002F000938101979383828324813581468157813D
:10030000DA01C9010197A109B1098F5F9F4FAF4F72
:10031000BF4328F30BC0918333822282EA0CFB1C7B
:100320000C1D1D1DE482F5820683178383E0808304
:10033000248135814681578157FF1AC0C901AA27F8
:1003400097FDA095BA2F81709070A070B0705695EF
:10035000479537952795822B932BA42BB52B848318
:100360009583A683B7838281938101969383828349
:10037000DF0101C0D201CD01CDB7DEB7E2E10C94BF
:10038000C92AA0E2B0E0E7ECF1E00C94B92A698355
:100390007A838B839C832D833E834F835887E9E048
:1003A000EE2EF12CEC0EFD1ECE010196B7010E943F
:1003B000D2048E010F5E1F4FCE010596B8010E9438
:1003C000D2048A8991E089278A8BC701B801AE01DE
:1003D000475E5F4F0E9475000E94FD03A096E6E015
:1003E0000C94D52AA0E2B0E0E8EFF1E00C94B92A31
:1003F00069837A838B839C832D833E834F835887C5
:10040000F9E0EF2EF12CEC0EFD1ECE010196B701A6
:100410000E94D2048E010F5E1F4FCE010596B801D7
:100420000E94D204C701B801AE01475E5F4F0E942F
:1004300075000E94FD03A096E6E00C94D52AA0E288
:10044000B0E0E5E2F2E00C94AD2A69837A838B8315
:100450009C832D833E834F835887CE010196BE0136
:10046000675F7F4F0E94D204CE010596BE016F5E8A
:100470007F4F0E94D2049985923088F0898982301A
:10048000C8F0943019F4823051F404C0843029F457
:10049000923081F480E690E0C6C0923049F420E0CA
:1004A0009A858A89981321E02A87CE010996BBC0D4
:1004B000823049F420E09A858A89981321E02A8BBA
:1004C000CE014196B0C02D843E844F8458886D88FB
:1004D0007E888F88988CEE24FF248701AA24BB2471
:1004E000650140E050E060E070E0E0E0F0E0C10174
:1004F00081709070892BE9F0E60CF71C081D191D1E
:100500009A01AB012A0D3B1D4C1D5D1D80E090E062
:10051000A0E0B0E0E614F7040805190520F481E036
:1005200090E0A0E0B0E0BA01A901480F591F6A1F8E
:100530007B1FAA0CBB1CCC1CDD1C97FE08C081E0F5
:1005400090E0A0E0B0E0A82AB92ACA2ADB2A3196B6
:10055000E032F10549F0660C771C881C991C569412
:10056000479437942794C3CFFA85EA892B893C892D
:100570008B859C85280F391F2E5F3F4F17C0CA01FE
:1005800081709070892B61F016950795F794E79428
:1005900080E090E0A0E0B0E8E82AF92A0A2B1B2BC3
:1005A00076956795579547952F5F3F4F77FDE7CF36
:1005B0000CC0440F551F661F771F17FD4160EE0CDE
:1005C000FF1C001F111F21503040403090E05907A0
:1005D00090E0690790E4790760F32B8F3C8FDB0193
:1005E000CA018F779070A070B07080349105A1051A
:1005F000B10561F447FD0AC0E114F10401051105DC
:1006000029F0405C5F4F6F4F7F4F40781A8EFE1786
:1006100011F081E08A8F4D8F5E8F6F8F78A383E01A
:10062000898FCE0149960E94FD03A096E2E10C94C9
:10063000C92AA8E1B0E0EFE1F3E00C94B92A69839C
:100640007A838B839C832D833E834F83588789E0F5
:10065000E82EF12CEC0EFD1ECE010196B7010E9492
:10066000D2048E010F5E1F4FCE010596B8010E9485
:10067000D2048985823040F08989823028F0C70110
:10068000B8010E944A0501C08FEF6896E6E00C941D
:10069000D52AA8E1B0E0EFE4F3E00C94B92A69832D
:1006A0007A838B839C832D833E834F83588789E095
:1006B000E82EF12CEC0EFD1ECE010196B7010E9432
:1006C000D2048E010F5E1F4FCE010596B8010E9425
:1006D000D2048985823040F08989823028F0C701B0
:1006E000B8010E944A0501C08FEF6896E6E00C94BD
:1006F000D52AA8E1B0E0EFE7F3E00C94B92A6983CA
:100700007A838B839C832D833E834F83588789E034
:10071000E82EF12CEC0EFD1ECE010196B7010E94D1
:10072000D2048E010F5E1F4FCE010596B8010E94C4
:10073000D2048985823040F08989823028F0C7014F
:10074000B8010E944A0501C081E06896E6E00C9479
:10075000D52AACE0B0E0EFEAF3E00C94BD2A69835F
:100760007A838B839C83CE010196BE016B5F7F4FA2
:100770000E94D2048D81823061F1823050F1843048
:1007800021F48E81882351F12EC02F81388537FDC9
:1007900020C06E812F3131051CF06623F9F023C093
:1007A0008EE190E0821B930B29853A854B855C8511
:1007B00004C056954795379527958A95D2F76623B5
:1007C000B1F050954095309521953F4F4F4F5F4F79
:1007D0000EC020E030E040E050E009C02FEF3FEFD6
:1007E0004FEF5FE704C020E030E040E050E8B9019F
:1007F000CA012C96E2E00C94D92ADF92EF92FF9284
:100800000F931F93FC01E480F58006811781D1804E
:100810008081823048F480E090E0A0E1B0E0E82AF6
:10082000F92A0A2B1B2BA5C0843009F49FC0823003
:1008300021F4EE24FF24870105C0E114F104010531
:10084000110519F4E0E0F0E096C0628173819FEF3A
:10085000623879070CF05BC022E83FEF261B370BAC
:100860002A3131052CF020E030E040E050E02AC091
:10087000B801A701022E04C0769567955795479554
:100880000A94D2F781E090E0A0E0B0E004C0880FC5
:10089000991FAA1FBB1F2A95D2F70197A109B10979
:1008A0008E219F21A023B1230097A105B10521F03E
:1008B00081E090E0A0E0B0E09A01AB01282B392B59
:1008C0004A2B5B2BDA01C9018F779070A070B07052
:1008D00080349105A105B10539F427FF09C0205CDA
:1008E0003F4F4F4F5F4F04C0215C3F4F4F4F5F4F13
:1008F000E0E0F0E02030A0E03A07A0E04A07A0E402
:100900005A0710F0E1E0F0E079018A0127C0603871
:10091000710564F5FB01E158FF4FD801C7018F77DE
:100920009070A070B07080349105A105B10539F4C4
:10093000E7FE0DC080E490E0A0E0B0E004C08FE3EB
:1009400090E0A0E0B0E0E80EF91E0A1F1B1F17FFA1
:1009500005C016950795F794E794319687E01695AC
:100960000795F794E7948A95D1F705C0EE24FF2404
:100970008701EFEFF0E06E2F679566276795902F60
:100980009F77D794DD24D7948E2F8695492F462BB9
:10099000582F5D29B701CA011F910F91FF90EF9069
:1009A000DF900895FC01DB01408151812281622F9B
:1009B0006F7770E0221F2227221F9381892F880FD3
:1009C000822B282F30E0991F9927991F11969C930D
:1009D000119721153105A9F54115510561057105DD
:1009E00011F482E037C082E89FEF13969C938E93B8
:1009F00012979A01AB0167E0220F331F441F551F66
:100A00006A95D1F783E08C930DC0220F331F441FEA
:100A1000551F12968D919C911397019713969C9355
:100A20008E931297203080E0380780E0480780E4FA
:100A3000580758F314962D933D934D935C93179755
:100A400008952F3F310579F4411551056105710570
:100A500019F484E08C93089564FF03C081E08C93C3
:100A600012C01C9210C02F57304013963C932E9307
:100A7000129783E08C9387E0440F551F661F771F02
:100A80008A95D1F7706414964D935D936D937C9322
:100A9000179708951F93DC01FB019C91923008F495
:100AA00047C08081823008F443C0943051F41196DD
:100AB0001C91843099F58181682F70E0611B710968
:100AC0003FC0843021F0923031F48230B9F181811D
:100AD000882389F12DC011961C9111978230F1F075
:100AE00081811817D9F412962D913C911397828128
:100AF00093818217930794F028173907BCF0149656
:100B00008D919D910D90BC91A02D248135814681C0
:100B10005781281739074A075B0718F4112341F05A
:100B20000AC082179307A407B50740F4112319F0F0
:100B300061E070E005C06FEF7FEF02C060E070E041
:100B4000CB011F910895DF93CF930F92CDB7DEB7FE
:100B50008983A5E4B0E0E5E4F0E080818F7B8C93AD
:100B6000A5E4B0E0E5E4F0E0808188608C93E3E404
:100B7000F0E089818083A5E4B0E0E5E4F0E08081E5
:100B80008E7F8C93A5E4B0E0E5E4F0E080818260A4
:100B90008C93A5E4B0E0E5E4F0E0808184608C9380
:100BA000A9E5B0E0E9E5F0E0808180688C930F90E2
:100BB000CF91DF910895DF93CF93CDB7DEB7A5E452
:100BC000B0E0E5E4F0E080818E7F8C93A5E4B0E0B6
:100BD000E5E4F0E080818D7F8C93A5E4B0E0E5E46E
:100BE000F0E080818B7F8C93A9E5B0E0E9E5F0E04F
:100BF00080818F778C93E4E4F0E01082CF91DF91D5
:100C00000895DF93CF9300D000D00F92CDB7DEB719
:100C10009D838C831B821A82198218C0E8E5F0E05C
:100C20008081882354F489818F5F8983A8E5B0E0AF
:100C3000E8E5F0E0808180688C938981843031F42C
:100C40008A819B8101969B838A8319822A813B81B9
:100C50008C819D812817390709F70F900F900F900D
:100C60000F900F90CF91DF910895DF93CF9300D035
:100C7000CDB7DEB79A83898389819A81009731F055
:100C800089819A8190935101809350010F900F9028
:100C9000CF91DF9108951F920F920FB60F921124FA
:100CA0002F933F934F935F936F937F938F939F9374
:100CB000AF93BF93EF93FF93DF93CF93CDB7DEB79F
:100CC0008091500190915101009729F0E0915001DD
:100CD000F09151010995CF91DF91FF91EF91BF9173
:100CE000AF919F918F917F916F915F914F913F91C4
:100CF0002F910F900FBE0F901F901895DF93CF93F9
:100D000000D00F92CDB7DEB789838981282F30E0DC
:100D10003B832A838A819B81009731F02A813B8122
:100D20002130310549F00FC0AEE4B0E0EEE4F0E070
:100D300080818F7B8C9307C0AEE4B0E0EEE4F0E0FE
:100D4000808180648C930F900F900F90CF91DF91F2
:100D50000895DF93CF93CDB7DEB784E066E040E03F
:100D60000E94D40FAFE4B0E0EFE4F0E080818E7F2A
:100D70008C93AFE4B0E0EFE4F0E080818D7F8C9362
:100D8000AEE4B0E0EEE4F0E08081877F8C93AEE4E7
:100D9000B0E0EEE4F0E080818F7E8C93A9E5B0E0D6
:100DA000E9E5F0E0808180628C9381E00E947E061C
:100DB000AEE4B0E0EEE4F0E080818E7F8C93AEE4B0
:100DC000B0E0EEE4F0E0808182608C93AEE4B0E0CD
:100DD000EEE4F0E080818B7F8C93CF91DF910895DA
:100DE000DF93CF9300D0CDB7DEB79A838983898113
:100DF0009A81009731F089819A8190935301809371
:100E000052010F900F90CF91DF9108951F920F9292
:100E10000FB60F9211242F933F934F935F936F93CD
:100E20007F938F939F93AF93BF93EF93FF93DF9342
:100E3000CF93CDB7DEB780915201909153010097C7
:100E400029F0E0915201F09153010995CF91DF9182
:100E5000FF91EF91BF91AF919F918F917F916F9192
:100E60005F914F913F912F910F900FBE0F901F9068
:100E70001895DF93CF93CDB7DEB7ECE4F0E01182A5
:100E80001082CF91DF910895DF93CF93CDB7DEB776
:100E9000E6E4F0E080819181CF91DF910895DF93C6
:100EA000CF9300D00F92CDB7DEB78983AFE4B0E027
:100EB000EFE4F0E080818E7F8C93AFE4B0E0EFE46C
:100EC000F0E080818D7F8C93AEE4B0E0EEE4F0E062
:100ED000808188608C93AEE4B0E0EEE4F0E0808145
:100EE0008F7E8C93EAE4F0E080E593EC918380833D
:100EF0008981282F30E03B832A838A819B8185303A
:100F0000910509F45EC02A813B81263031055CF4ED
:100F10008A819B818230910591F02A813B81243026
:100F20003105C9F122C08A819B818630910509F47F
:100F30005EC02A813B8129303105BCF46DC0AEE42E
:100F4000B0E0EEE4F0E0808181608C93AEE4B0E04C
:100F5000EEE4F0E080818D7F8C93AEE4B0E0EEE4CF
:100F6000F0E080818B7F8C9357C0AEE4B0E0EEE47C
:100F7000F0E080818E7F8C93AEE4B0E0EEE4F0E0B0
:100F8000808182608C93AEE4B0E0EEE4F0E080819A
:100F90008B7F8C9341C0AEE4B0E0EEE4F0E0808162
:100FA00081608C93AEE4B0E0EEE4F0E0808182609A
:100FB0008C93AEE4B0E0EEE4F0E080818B7F8C9324
:100FC0002BC0AEE4B0E0EEE4F0E080818E7F8C9345
:100FD000AEE4B0E0EEE4F0E080818D7F8C93AEE48F
:100FE000B0E0EEE4F0E0808184608C9315C0AEE464
:100FF000B0E0EEE4F0E0808181608C93AEE4B0E09C
:10100000EEE4F0E080818D7F8C93AEE4B0E0EEE41E
:10101000F0E0808184608C93A8E5B0E0E8E5F0E042
:10102000808180618C930F900F900F90CF91DF9112
:101030000895DF93CF9300D000D00F92CDB7DEB7E5
:101040009A8389836B83AFE4B0E0EFE4F0E08081C2
:101050008E7F8C93AFE4B0E0EFE4F0E080818D7F91
:101060008C93AEE4B0E0EEE4F0E0808188608C9395
:10107000AEE4B0E0EEE4F0E080818F7E8C93EAE4B1
:10108000F0E089819A81918380838B81282F30E0E1
:101090003D832C838C819D818530910509F45EC050
:1010A0002C813D81263031055CF48C819D8182301C
:1010B000910591F02C813D8124303105C9F122C088
:1010C0008C819D818630910509F45EC02C813D8123
:1010D00029303105BCF46DC0AEE4B0E0EEE4F0E0E0
:1010E000808181608C93AEE4B0E0EEE4F0E080813A
:1010F0008D7F8C93AEE4B0E0EEE4F0E080818B7FF6
:101100008C9357C0AEE4B0E0EEE4F0E080818E7FD7
:101110008C93AEE4B0E0EEE4F0E0808182608C93EA
:10112000AEE4B0E0EEE4F0E080818B7F8C9341C0D0
:10113000AEE4B0E0EEE4F0E0808181608C93AEE458
:10114000B0E0EEE4F0E0808182608C93AEE4B0E049
:10115000EEE4F0E080818B7F8C932BC0AEE4B0E0B6
:10116000EEE4F0E080818E7F8C93AEE4B0E0EEE4BC
:10117000F0E080818D7F8C93AEE4B0E0EEE4F0E0AF
:10118000808184608C9315C0AEE4B0E0EEE4F0E0C2
:10119000808181608C93AEE4B0E0EEE4F0E0808189
:1011A0008D7F8C93AEE4B0E0EEE4F0E0808184606B
:1011B0008C93A9E5B0E0E9E5F0E0808180618C9353
:1011C0000F900F900F900F900F90CF91DF91089597
:1011D000DF93CF93CDB7DEB728970FB6F894DEBF75
:1011E0000FBECDBF6D837E838F83988719821A824D
:1011F0001B821C821DC0E8E5F0E0808182958F7023
:10120000882F90E081709070882391F089819A8175
:10121000AB81BC81C296A11DB11D89839A83AB832A
:10122000BC83A8E5B0E0E8E5F0E0808180618C93C4
:1012300029813A814B815C818D819E81AF81B88506
:10124000281739074A075B07B0F228960FB6F894BB
:10125000DEBF0FBECDBFCF91DF910895DF93CF9357
:1012600000D0CDB7DEB79A83898389819A810097B0
:1012700031F089819A8190935501809354010F90A8
:101280000F90CF91DF9108951F920F920FB60F929A
:1012900011242F933F934F935F936F937F938F937B
:1012A0009F93AF93BF93EF93FF93DF93CF93CDB70C
:1012B000DEB78091540190915501009729F0E0919B
:1012C0005401F09155010995CF91DF91FF91EF9174
:1012D000BF91AF919F918F917F916F915F914F914E
:1012E0003F912F910F900FBE0F901F901895DF9395
:1012F000CF93CDB7DEB727970FB6F894DEBF0FBEFA
:10130000CDBF89836A834B83A3E5B0E0E3E5F0E0DA
:10131000808188608C93A3E5B0E0E3E5F0E0808114
:101320008F7B8C93ECE5F0E0898180838A81282F84
:1013300030E03F832E838E819F818330910541F180
:101340002E813F812430310591F18E819F81823041
:10135000910579F0A3E5B0E0E3E5F0E080818F7ED0
:101360008C93A3E5B0E0E3E5F0E080818F7D8C9382
:101370002CC0A3E5B0E0E3E5F0E080818F7D8C93A5
:10138000A3E5B0E0E3E5F0E0808180618C931DC0CF
:10139000A3E5B0E0E3E5F0E080818F7E8C93A3E5E8
:1013A000B0E0E3E5F0E0808180628C930EC0A3E5BD
:1013B000B0E0E3E5F0E0808180618C93A3E5B0E0EC
:1013C000E3E5F0E0808180628C938B81282F30E010
:1013D0003D832C838C819D818530910509F458C013
:1013E0002C813D81263031055CF48C819D818230D9
:1013F000910561F02C813D812430310599F11CC0AB
:101400008C819D8189309105BCF457C0A3E5B0E083
:10141000E3E5F0E0808181608C93A3E5B0E0E3E553
:10142000F0E080818D7F8C93A3E5B0E0E3E5F0E010
:1014300080818B7F8C9341C0A3E5B0E0E3E5F0E0D1
:1014400080818E7F8C93A3E5B0E0E3E5F0E08081BE
:1014500082608C93A3E5B0E0E3E5F0E080818B7FD0
:101460008C932BC0A3E5B0E0E3E5F0E080818160E0
:101470008C93A3E5B0E0E3E5F0E0808182608C939B
:10148000A3E5B0E0E3E5F0E080818B7F8C9315C0AD
:10149000A3E5B0E0E3E5F0E080818D7F8C93A3E5E8
:1014A000B0E0E3E5F0E080818E7F8C93A3E5B0E0CF
:1014B000E3E5F0E0808184608C93A9E5B0E0E9E5A4
:1014C000F0E0808182608C9327960FB6F894DEBF9F
:1014D0000FBECDBFCF91DF910895DF93CF93CDB7EE
:1014E000DEB727970FB6F894DEBF0FBECDBF898356
:1014F0006A834B83A3E5B0E0E3E5F0E08081886098
:101500008C93A3E5B0E0E3E5F0E080818F7B8C93E2
:10151000ECE5F0E0898180838981809356018A819E
:10152000282F30E03F832E838E819F818330910569
:1015300041F12E813F812430310591F18E819F81CF
:101540008230910579F0A3E5B0E0E3E5F0E0808139
:101550008F7E8C93A3E5B0E0E3E5F0E080818F7DA2
:101560008C932CC0A3E5B0E0E3E5F0E080818F7DB3
:101570008C93A3E5B0E0E3E5F0E0808180618C939B
:101580001DC0A3E5B0E0E3E5F0E080818F7E8C93A1
:10159000A3E5B0E0E3E5F0E0808180628C930EC0CB
:1015A000A3E5B0E0E3E5F0E0808180618C93A3E502
:1015B000B0E0E3E5F0E0808180628C938B81282F9E
:1015C00030E03D832C838C819D818530910509F429
:1015D00058C02C813D81263031055CF48C819D8181
:1015E0008230910561F02C813D812430310599F1E3
:1015F0001CC08C819D8189309105BCF457C0A3E546
:10160000B0E0E3E5F0E0808181608C93A3E5B0E099
:10161000E3E5F0E080818D7F8C93A3E5B0E0E3E526
:10162000F0E080818B7F8C9341C0A3E5B0E0E3E5DF
:10163000F0E080818E7F8C93A3E5B0E0E3E5F0E0FD
:10164000808182608C93A3E5B0E0E3E5F0E08081E7
:101650008B7F8C932BC0A3E5B0E0E3E5F0E08081C5
:1016600081608C93A3E5B0E0E3E5F0E080818260E7
:101670008C93A3E5B0E0E3E5F0E080818B7F8C9371
:1016800015C0A3E5B0E0E3E5F0E080818D7F8C93A9
:10169000A3E5B0E0E3E5F0E080818E7F8C93A3E5E5
:1016A000B0E0E3E5F0E0808184608C93A8E5B0E0F1
:1016B000E8E5F0E0808182608C9327960FB6F8947D
:1016C000DEBF0FBECDBFCF91DF910895DF93CF93E3
:1016D000CDB7DEB7A3E5B0E0E3E5F0E080818D7F34
:1016E0008C93A3E5B0E0E3E5F0E080818E7F8C93FE
:1016F000A3E5B0E0E3E5F0E080818B7F8C93CF91B0
:10170000DF910895DF93CF9300D0CDB7DEB79A83F2
:10171000898389819A81009731F089819A81909398
:101720005801809357010F900F90CF91DF9108954A
:101730001F920F920FB60F9211242F933F934F9346
:101740005F936F937F938F939F93AF93BF93EF9329
:10175000FF93DF93CF93CDB7DEB780915701909180
:101760005801009729F0E0915701F091580109952F
:10177000CF91DF91FF91EF91BF91AF919F918F91A9
:101780007F916F915F914F913F912F910F900FBE7D
:101790000F901F901895DF93CF93CDB7DEB72A97A0
:1017A0000FB6F894DEBF0FBECDBF6D837E838F83EF
:1017B00098875A87498719821A821B821C8228C0FF
:1017C000E8E5F0E080818695882F90E08170907048
:1017D0008823C9F080915601282F30E040E050E086
:1017E00089819A81AB81BC81820F931FA41FB51F91
:1017F00089839A83AB83BC83A8E5B0E0E8E5F0E099
:10180000808182608C93E985FA858081882369F4E0
:1018100029813A814B815C818D819E81AF81B88520
:10182000281739074A075B0758F22A960FB6F8942B
:10183000DEBF0FBECDBFCF91DF910895DF93CF9371
:10184000CDB7DEB7A1E2B0E0E1E2F0E080818E7FCB
:101850008C93A1E2B0E0E1E2F0E080818D7F8C9397
:10186000E0E2F0E080E28083A6E5B0E0E6E5F0E0CB
:10187000808184608C93CF91DF910895DF93CF9323
:101880000F92CDB7DEB71982E6E5F0E084EA8083F7
:10189000E6E5F0E080818823DCF7E1E2F0E080819A
:1018A000882F90E0887F907088309105B1F7E1E251
:1018B000F0E08081882F90E0887F907088309105DB
:1018C00011F081E0898389810F90CF91DF91089594
:1018D000DF93CF930F92CDB7DEB71982E6E5F0E044
:1018E00084EA8083E6E5F0E080818823DCF7E1E2AA
:1018F000F0E08081882F90E0887F907080319105A2
:10190000B1F7E1E2F0E08081882F90E0887F90706D
:101910008031910511F082E0898389810F90CF9108
:10192000DF910895DF93CF9300D0CDB7DEB78A83E0
:101930001982E3E2F0E08A81880F8083A3E2B0E0BD
:10194000E3E2F0E080818E7F8C93E6E5F0E084E8CE
:101950008083E6E5F0E080818823DCF7E1E2F0E0D7
:101960008081882F90E0887F90708831910511F0F8
:1019700083E0898389810F900F90CF91DF91089543
:10198000DF93CF9300D0CDB7DEB78A831982A6E567
:10199000B0E0E6E5F0E080818F7B8C93E3E2F0E05D
:1019A0008A81880F8083A3E2B0E0E3E2F0E08081E7
:1019B0008E7F8C93E6E5F0E084E88083E6E5F0E056
:1019C00080818823DCF7E1E2F0E08081882F90E0DD
:1019D000887F90708032910511F084E0898389813D
:1019E0000F900F90CF91DF910895DF93CF9300D0A8
:1019F000CDB7DEB78A831982A6E5B0E0E6E5F0E070
:101A0000808180648C93E3E2F0E08A81880F808398
:101A1000A3E2B0E0E3E2F0E0808181608C93E6E550
:101A2000F0E084E88083E6E5F0E080818823DCF75D
:101A3000E1E2F0E08081882F90E0887F9070803430
:101A4000910511F085E0898389810F900F90CF91E6
:101A5000DF910895DF93CF9300D0CDB7DEB78A83AF
:101A60001982A6E5B0E0E6E5F0E080818F7B8C93FB
:101A7000E3E2F0E08A81880F8083A3E2B0E0E3E252
:101A8000F0E0808181608C93E6E5F0E084E880837B
:101A9000E6E5F0E080818823DCF7E1E2F0E0808198
:101AA000882F90E0887F90708834910511F086E04F
:101AB000898389810F900F90CF91DF910895DF93F3
:101AC000CF9300D0CDB7DEB78A831982E3E2F0E08E
:101AD0008A818083E6E5F0E084E88083E6E5F0E053
:101AE00080818823DCF7E1E2F0E08081882F90E0BC
:101AF000887F90708832910511F087E08983898111
:101B00000F900F90CF91DF910895DF93CF9300D086
:101B1000CDB7DEB78A831982E3E2F0E08A81808361
:101B2000E6E5F0E084E88083E6E5F0E08081882364
:101B3000DCF7E1E2F0E08081882F90E0887F907010
:101B40008033910511F088E0898389810F900F908F
:101B5000CF91DF910895DF93CF9300D000D0CDB720
:101B6000DEB79B838A838A819B810097F9F0198273
:101B7000E6E5F0E084E88083E6E5F0E08081882314
:101B8000DCF7E1E2F0E08081882F90E0887F9070C0
:101B90008035910511F08AE08983E3E2F0E08081ED
:101BA000EA81FB81808389818C8302C08FEF8C83E3
:101BB0008C810F900F900F900F90CF91DF9108952F
:101BC000DF93CF9300D000D0CDB7DEB79B838A835D
:101BD0008A819B810097F9F01982E6E5F0E084E8BC
:101BE0008083E6E5F0E080818823DCF7E1E2F0E045
:101BF0008081882F90E0887F90708835910511F062
:101C00008AE08983E3E2F0E08081EA81FB818083DE
:101C100089818C8302C08FEF8C838C810F900F9011
:101C20000F900F90CF91DF910895DF93CF93CDB7B1
:101C3000DEB7E6E5F0E084E98083CF91DF91089597
:101C4000DF93CF930F92CDB7DEB78983E2E2F0E066
:101C50008981880F8083A6E5B0E0E6E5F0E0808129
:101C600084608C930F90CF91DF910895DF93CF9391
:101C7000CDB7DEB7AFE5B0E0EFE5F0E0808180689A
:101C80008C93CF91DF910895DF93CF93CDB7DEB7DB
:101C9000AFE5B0E0EFE5F0E080818F778C93CF91F6
:101CA000DF910895DF93CF9300D00F92CDB7DEB7C9
:101CB000898384E062E040E00E94D40F84E062E027
:101CC00041E00E94EE108981282F30E03B832A8377
:101CD0008A819B818230910529F12A813B812330C1
:101CE000310534F48A819B818130910561F046C0D1
:101CF0002A813B812330310521F18A819B81843007
:101D0000910571F13BC0A5E5B0E0E5E5F0E080812B
:101D10008E7F8C93A5E5B0E0E5E5F0E080818D7FD6
:101D20008C932CC0A5E5B0E0E5E5F0E08081816012
:101D30008C93A5E5B0E0E5E5F0E080818D7F8C93A4
:101D40001DC0A5E5B0E0E5E5F0E080818E7F8C93D5
:101D5000A5E5B0E0E5E5F0E0808182608C930EC0FF
:101D6000A5E5B0E0E5E5F0E0808181608C93A5E534
:101D7000B0E0E5E5F0E0808182608C930E94360E51
:101D8000ABE5B0E0EBE5F0E0808180648C930F90F0
:101D90000F900F90CF91DF910895DF93CF93CDB740
:101DA000DEB7ABE5B0E0EBE5F0E080818F7B8C93B4
:101DB000CF91DF910895DF93CF9300D00F92CDB7ED
:101DC000DEB7898384E063E040E00E94D40F89811C
:101DD000282F30E03B832A838A819B8182309105C2
:101DE00029F12A813B812330310534F48A819B819A
:101DF0008130910561F046C02A813B812330310555
:101E000021F18A819B818430910571F13BC0A5E568
:101E1000B0E0E5E5F0E080818B7F8C93A5E5B0E054
:101E2000E5E5F0E08081877F8C932CC0A5E5B0E0EC
:101E3000E5E5F0E0808184608C93A5E5B0E0E5E520
:101E4000F0E08081877F8C931DC0A5E5B0E0E5E5DB
:101E5000F0E080818B7F8C93A5E5B0E0E5E5F0E0D4
:101E6000808188608C930EC0A5E5B0E0E5E5F0E0E8
:101E7000808184608C93A5E5B0E0E5E5F0E08081A9
:101E800088608C930E94360EABE5B0E0EBE5F0E0A5
:101E9000808180688C930F900F900F90CF91DF918D
:101EA0000895DF93CF9300D00F92CDB7DEB789832B
:101EB00082E062E040E00E94D40F8981282F30E068
:101EC0003B832A838A819B818330910531F02A816B
:101ED0003B812430310549F00FC0A4E5B0E0E4E5D2
:101EE000F0E080818F7B8C9307C0A4E5B0E0E4E54F
:101EF000F0E0808180648C930E94360EABE5B0E008
:101F0000EBE5F0E0808180628C930F900F900F9052
:101F1000CF91DF910895DF93CF9300D0CDB7DEB797
:101F20009A83898389819A81009731F089819A8186
:101F300090935A01809359010F900F90CF91DF91A8
:101F400008951F920F920FB60F9211242F933F9373
:101F50004F935F936F937F938F939F93AF93BF93B1
:101F6000EF93FF93DF93CF93CDB7DEB78091590105
:101F700090915A01009729F0E0915901F0915A018E
:101F80000995CF91DF91FF91EF91BF91AF919F9113
:101F90008F917F916F915F914F913F912F910F9012
:101FA0000FBE0F901F901895DF93CF93CDB7DEB77C
:101FB00028970FB6F894DEBF0FBECDBF8A836B8320
:101FC0004C838A81853008F0FDC08A81882309F41A
:101FD000F9C08B81883008F0F2C08C81813009F023
:101FE00071C019828A81282F30E038872F838F8132
:101FF00098858230910551F12F8138852330310544
:1020000034F48F8198858130910561F0DDC02F8196
:1020100038852330310571F18F81988584309105A1
:10202000E9F1D2C0AAE3B0E0EAE3F0E08081482F12
:102030008B81282F30E081E090E0022E02C0880FD3
:10204000991F0A94E2F7842B8C93BEC0A7E3B0E0FB
:10205000E7E3F0E08081482F8B81282F30E081E09A
:1020600090E0022E02C0880F991F0A94E2F7842B99
:102070008C93AAC0A4E3B0E0E4E3F0E08081482FB1
:102080008B81282F30E081E090E0022E02C0880F83
:10209000991F0A94E2F7842B8C9396C0A1E3B0E0D9
:1020A000E1E3F0E08081482F8B81282F30E081E050
:1020B00090E0022E02C0880F991F0A94E2F7842B49
:1020C0008C9382C08C81882309F076C019828A8122
:1020D000282F30E03E832D838D819E8182309105B3
:1020E00061F12D813E812330310534F48D819E8153
:1020F0008130910569F068C02D813E812330310522
:1021000089F18D819E818430910509F440C05CC0C5
:10211000AAE3B0E0EAE3F0E08081482F8B81282F2A
:1021200030E081E090E0022E02C0880F991F0A94EF
:10213000E2F7809584238C9347C0A7E3B0E0E7E300
:10214000F0E08081482F8B81282F30E081E090E003
:10215000022E02C0880F991F0A94E2F7809584230B
:102160008C9332C0A4E3B0E0E4E3F0E08081482F38
:102170008B81282F30E081E090E0022E02C0880F92
:10218000991F0A94E2F7809584238C931DC0A1E3E4
:10219000B0E0E1E3F0E08081482F8B81282F30E030
:1021A00081E090E0022E02C0880F991F0A94E2F7A6
:1021B000809584238C9308C083E0898305C082E0E6
:1021C000898302C081E08983898128960FB6F894BB
:1021D000DEBF0FBECDBFCF91DF910895DF93CF93C8
:1021E000CDB7DEB728970FB6F894DEBF0FBECDBFD0
:1021F0008A836B834C838A81853008F0FDC08A8195
:10220000882309F4F9C08B81883008F0F2C08C81F2
:10221000813009F071C019828A81282F30E0388717
:102220002F838F8198858230910551F12F813885D8
:102230002330310534F48F8198858130910561F028
:10224000DDC02F8138852330310571F18F8198856C
:1022500084309105E9F1D2C0ABE3B0E0EBE3F0E00C
:102260008081482F8B81282F30E081E090E0022E82
:1022700002C0880F991F0A94E2F7842B8C93BEC08A
:10228000A8E3B0E0E8E3F0E08081482F8B81282FBD
:1022900030E081E090E0022E02C0880F991F0A947E
:1022A000E2F7842B8C93AAC0A5E3B0E0E5E3F0E06D
:1022B0008081482F8B81282F30E081E090E0022E32
:1022C00002C0880F991F0A94E2F7842B8C9396C062
:1022D000A2E3B0E0E2E3F0E08081482F8B81282F79
:1022E00030E081E090E0022E02C0880F991F0A942E
:1022F000E2F7842B8C9382C08C81882309F076C00E
:1023000019828A81282F30E03E832D838D819E8122
:102310008230910561F12D813E812330310534F405
:102320008D819E818130910569F068C02D813E814B
:102330002330310589F18D819E818430910509F426
:1023400040C05CC0ABE3B0E0EBE3F0E08081482F3D
:102350008B81282F30E081E090E0022E02C0880FB0
:10236000991F0A94E2F7809584238C9347C0A8E3D1
:10237000B0E0E8E3F0E08081482F8B81282F30E047
:1023800081E090E0022E02C0880F991F0A94E2F7C4
:10239000809584238C9332C0A5E3B0E0E5E3F0E0C0
:1023A0008081482F8B81282F30E081E090E0022E41
:1023B00002C0880F991F0A94E2F7809584238C93BA
:1023C0001DC0A2E3B0E0E2E3F0E08081482F8B8102
:1023D000282F30E081E090E0022E02C0880F991F84
:1023E0000A94E2F7809584238C9308C084E0898363
:1023F00005C082E0898302C081E0898389812896B3
:102400000FB6F894DEBF0FBECDBFCF91DF91089518
:10241000DF93CF93CDB7DEB727970FB6F894DEBF23
:102420000FBECDBF8A836B835D834C838A818530E9
:1024300008F07DC08A81882309F479C08B818830B7
:1024400008F072C019828A81282F30E03F832E83E2
:102450004E815F814230510559F18E819F818330D9
:10246000910534F42E813F812130310569F061C03E
:102470004E815F814330510579F18E819F81843097
:10248000910509F43DC055C0E9E3F0E08081282FB3
:1024900030E08B81882F90E0A90102C055954795C7
:1024A0008A95E2F7CA018170EC81FD81808341C089
:1024B000E6E3F0E08081282F30E08B81882F90E0E8
:1024C000A90102C0559547958A95E2F7CA01817026
:1024D000EC81FD8180832DC0E3E3F0E08081282F33
:1024E00030E08B81882F90E0A90102C05595479577
:1024F0008A95E2F7CA018170EC81FD81808319C061
:10250000E0E3F0E08081282F30E08B81882F90E09D
:10251000A90102C0559547958A95E2F7CA018170D5
:10252000EC81FD81808305C082E0898302C081E067
:102530008983898127960FB6F894DEBF0FBECDBF81
:10254000CF91DF910895DF93CF9300D000D00F9209
:10255000CDB7DEB78A836B838A818530C0F58A81E7
:102560008823A9F119828A81282F30E03D832C83AA
:102570008C819D8182309105D9F02C813D81233061
:10258000310534F48C819D818130910561F021C049
:102590002C813D812330310581F08C819D818430F7
:1025A000910581F016C0EAE3F0E08B81808311C0D1
:1025B000E7E3F0E08B8180830CC0E4E3F0E08B8103
:1025C000808307C0E1E3F0E08B81808302C081E07B
:1025D000898389810F900F900F900F900F90CF916A
:1025E000DF910895DF93CF9300D000D00F92CDB745
:1025F000DEB78A836B838A818530C0F58A81882320
:10260000A9F119828A81282F30E03D832C838C81A7
:102610009D8182309105D9F02C813D812330310597
:1026200034F48C819D818130910561F021C02C8131
:102630003D812330310581F08C819D81843091056D
:1026400081F016C0EBE3F0E08B81808311C0E8E3FA
:10265000F0E08B8180830CC0E5E3F0E08B81808328
:1026600007C0E2E3F0E08B81808302C081E08983D0
:1026700089810F900F900F900F900F90CF91DF9165
:102680000895DF93CF9300D000D000D0CDB7DEB750
:102690008A837C836B838A81853008F040C08A817D
:1026A0008823E9F119828A81282F30E03E832D8327
:1026B0008D819E8182309105E9F02D813E8123300C
:1026C000310534F48D819E818130910561F029C0FE
:1026D0002D813E8123303105A1F08D819E81843092
:1026E0009105B1F01EC0EBE3F0E08081EB81FC814D
:1026F000808317C0E8E3F0E08081EB81FC81808378
:1027000010C0E5E3F0E08081EB81FC81808309C0AB
:10271000E2E3F0E08081EB81FC81808302C081E014
:102720008983898126960FB6F894DEBF0FBECDBF90
:10273000CF91DF910895DF93CF93CDB7DEB72D977B
:102740000FB6F894DEBF0FBECDBF8A836B834C8378
:102750002D838A81853008F077C18A81882309F426
:1027600073C18B81882309F06FC08D818130A9F5F9
:1027700019828A81282F30E03D872C878C859D85A2
:1027800082309105D9F02C853D852330310534F414
:102790008C859D858130910561F058C12C853D85E2
:1027A0002330310581F08C859D858430910581F041
:1027B0004DC1EBE3F0E08FEF808348C1E8E3F0E048
:1027C0008FEF808343C1E5E3F0E08FEF80833EC16C
:1027D000E2E3F0E08FEF808339C18D81882389F5B2
:1027E00019828A81282F30E03B872A878A859B853A
:1027F00082309105D1F02A853B852330310534F4B0
:102800008A859B858130910561F020C12A853B85B1
:102810002330310571F08A859B858430910569F0FC
:1028200015C1EBE3F0E0108211C1E8E3F0E01082A3
:102830000DC1E5E3F0E0108209C1E2E3F0E01082AF
:1028400005C186E0898302C18B81813009F0F9C01E
:102850008C81883008F0F2C08D81813009F071C020
:1028600019828A81282F30E03987288788859985C1
:102870008230910551F1288539852330310534F4B2
:10288000888599858130910561F0E0C0288539857A
:102890002330310571F18885998584309105E9F1FE
:1028A000D5C0ABE3B0E0EBE3F0E08081482F8C8152
:1028B000282F30E081E090E0022E02C0880F991F9F
:1028C0000A94E2F7842B8C93C1C0A8E3B0E0E8E35C
:1028D000F0E08081482F8C81282F30E081E090E06B
:1028E000022E02C0880F991F0A94E2F7842B8C9362
:1028F000ADC0A5E3B0E0E5E3F0E08081482F8C8136
:10290000282F30E081E090E0022E02C0880F991F4E
:102910000A94E2F7842B8C9399C0A2E3B0E0E2E33F
:10292000F0E08081482F8C81282F30E081E090E01A
:10293000022E02C0880F991F0A94E2F7842B8C9311
:1029400085C08D81882309F076C019828A81282F5D
:1029500030E03F832E838E819F818230910561F12B
:102960002E813F812330310534F48E819F81813067
:10297000910569F06BC02E813F812330310589F1CB
:102980008E819F818430910509F440C05FC0ABE324
:10299000B0E0EBE3F0E08081482F8C81282F30E01D
:1029A00081E090E0022E02C0880F991F0A94E2F79E
:1029B000809584238C934AC0A8E3B0E0E8E3F0E07C
:1029C0008081482F8C81282F30E081E090E0022E1A
:1029D00002C0880F991F0A94E2F7809584238C9394
:1029E00035C0A5E3B0E0E5E3F0E08081482F8C81BD
:1029F000282F30E081E090E0022E02C0880F991F5E
:102A00000A94E2F7809584238C9320C0A2E3B0E07F
:102A1000E2E3F0E08081482F8C81282F30E081E0D4
:102A200090E0022E02C0880F991F0A94E2F7809569
:102A300084238C930BC086E0898308C082E089835D
:102A400005C085E0898302C081E0898389812D9654
:102A50000FB6F894DEBF0FBECDBFCF91DF910895C2
:102A60000F931F93DF93CF93CDB7DEB7CC58D040F1
:102A70000FB6F894DEBF0FBECDBF83E060E041E04B
:102A80000E94D40F83E061E041E00E94D40F0E94D5
:102A90001E0C0E948C1DFE01E757FF4F80E090E066
:102AA000A8ECB2E480839183A283B3838E010B5799
:102AB0001F4FFE01E757FF4F608171818281938133
:102AC00020E030E04AEF54E40E941F02DC01CB0119
:102AD000F80180839183A283B383FE01EB57FF4FFC
:102AE000608171818281938120E030E040E85FE382
:102AF0000E947903882344F4FE01ED57FF4F81E0E3
:102B000090E09183808364C0FE01EB57FF4F6081AA
:102B100071818281938120E03FEF4FE757E40E946B
:102B2000190318160CF043C0FE01E757FF4F6081F0
:102B300071818281938120E030E040E251E40E9483
:102B40001F02DC01CB018E010D571F4FBC01CD01CF
:102B50000E944900DC01CB01F801918380831FC0F2
:102B6000FE01EF57FF4F88EC90E091838083FE01D8
:102B7000EF57FF4F808191810197F1F7FE01EF57E9
:102B8000FF4F91838083DE01AD57BF4FFE01ED57AC
:102B9000FF4F80819181019711969C938E93FE0146
:102BA000ED57FF4F808191810097D1F627C08E01AC
:102BB0000D571F4FFE01EB57FF4F608171818281DE
:102BC00093810E944900DC01CB01F801918380834D
:102BD000DE01A158BF4FFE01ED57FF4F808191816B
:102BE0008D939C93FE01E158FF4F80819181019765
:102BF000F1F7FE01E158FF4F9183808380E30E944B
:102C0000AD1DFE01E558FF4F80E090E0A0EAB0E482
:102C100080839183A283B3838E0109581F4FFE01E5
:102C2000E558FF4F608171818281938120E030E01F
:102C30004AEF54E40E941F02DC01CB01F8018083BB
:102C40009183A283B383FE01E958FF4F60817181B4
:102C50008281938120E030E040E85FE30E947903C5
:102C6000882344F4FE01EB58FF4F81E090E091830C
:102C7000808364C0FE01E958FF4F608171818281C9
:102C8000938120E03FEF4FE757E40E9419031816A5
:102C90000CF043C0FE01E558FF4F608171818281D5
:102CA000938120E030E040E251E40E941F02DC0109
:102CB000CB018E010B581F4FBC01CD010E94490072
:102CC000DC01CB01F801918380831FC0FE01ED5828
:102CD000FF4F88EC90E091838083FE01ED58FF4F19
:102CE000808191810197F1F7FE01ED58FF4F9183AB
:102CF0008083DE01AB58BF4FFE01EB58FF4F808150
:102D00009181019711969C938E93FE01EB58FF4F92
:102D1000808191810097D1F627C08E010B581F4FFB
:102D2000FE01E958FF4F60817181828193810E9489
:102D30004900DC01CB01F80191838083DE01AF58AB
:102D4000BF4FFE01EB58FF4F808191818D939C9383
:102D5000FE01EF58FF4F808191810197F1F7FE014D
:102D6000EF58FF4F9183808380E30E94AD1DFE01E9
:102D7000E359FF4F80E090E0A0E8BFE380839183B8
:102D8000A283B3838E0107591F4FFE01E359FF4F02
:102D9000608171818281938120E030E04AEF54E4C8
:102DA0000E941F02DC01CB01F80180839183A28382
:102DB000B383FE01E759FF4F608171818281938166
:102DC00020E030E040E85FE30E947903882344F488
:102DD000FE01E959FF4F81E090E09183808364C058
:102DE000FE01E759FF4F608171818281938120E06C
:102DF0003FEF4FE757E40E94190318160CF043C049
:102E0000FE01E359FF4F608171818281938120E04F
:102E100030E040E251E40E941F02DC01CB018E0150
:102E200009591F4FBC01CD010E944900DC01CB01B3
:102E3000F801918380831FC0FE01EB59FF4F88EC9E
:102E400090E091838083FE01EB59FF4F8081918157
:102E50000197F1F7FE01EB59FF4F91838083DE016B
:102E6000A959BF4FFE01E959FF4F80819181019718
:102E700011969C938E93FE01E959FF4F80819181B9
:102E80000097D1F627C08E0109591F4FFE01E7595F
:102E9000FF4F60817181828193810E944900DC0132
:102EA000CB01F80191838083DE01AD59BF4FFE0154
:102EB000E959FF4F808191818D939C93FE01ED59DB
:102EC000FF4F808191810197F1F7FE01ED59FF4F8E
:102ED0009183808380E30E94AD1DFE01E15AFF4F84
:102EE00080E090E0A0E8BFE380839183A283B38376
:102EF0008E01055A1F4FFE01E15AFF4F608171811B
:102F00008281938120E030E04AEF54E40E941F0266
:102F1000DC01CB01F80180839183A283B383FE019E
:102F2000E55AFF4F608171818281938120E030E01A
:102F300040E85FE30E947903882344F4FE01E75AE6
:102F4000FF4F81E090E09183808364C0FE01E55AE9
:102F5000FF4F608171818281938120E03FEF4FE7D5
:102F600057E40E94190318160CF043C0FE01E15A01
:102F7000FF4F608171818281938120E030E040E2E7
:102F800051E40E941F02DC01CB018E01075A1F4F42
:102F9000BC01CD010E944900DC01CB01F801918305
:102FA00080831FC0FE01E95AFF4F88EC90E09183B7
:102FB0008083FE01E95AFF4F808191810197F1F7EB
:102FC000FE01E95AFF4F91838083DE01A75ABF4F6C
:102FD000FE01E75AFF4F80819181019711969C93E2
:102FE0008E93FE01E75AFF4F808191810097D1F6C1
:102FF00027C08E01075A1F4FFE01E55AFF4F60811F
:103000007181828193810E944900DC01CB01F8012A
:1030100091838083DE01AB5ABF4FFE01E75AFF4F19
:10302000808191818D939C93FE01EB5AFF4F8081AB
:1030300091810197F1F7FE01EB5AFF4F9183808355
:1030400080E20E94AD1DFE01EF5AFF4F80E090E04C
:10305000A0E8BFE380839183A283B3838E01035BE7
:103060001F4FFE01EF5AFF4F608171818281938172
:1030700020E030E04AEF54E40E941F02DC01CB0163
:10308000F80180839183A283B383FE01E35BFF4F4A
:10309000608171818281938120E030E040E85FE3CC
:1030A0000E947903882344F4FE01E55BFF4F81E031
:1030B00090E09183808364C0FE01E35BFF4F6081F9
:1030C00071818281938120E03FEF4FE757E40E94B6
:1030D000190318160CF043C0FE01EF5AFF4F608130
:1030E00071818281938120E030E040E251E40E94CE
:1030F0001F02DC01CB018E01055B1F4FBC01CD011E
:103100000E944900DC01CB01F801918380831FC03C
:10311000FE01E75BFF4F88EC90E091838083FE0126
:10312000E75BFF4F808191810197F1F7FE01E75B3B
:10313000FF4F91838083DE01A55BBF4FFE01E55BFE
:10314000FF4F80819181019711969C938E93FE0190
:10315000E55BFF4F808191810097D1F627C08E01FA
:10316000055B1F4FFE01E35BFF4F60817181828130
:1031700093810E944900DC01CB01F8019183808397
:10318000DE01A95BBF4FFE01E55BFF4F80819181AE
:103190008D939C93FE01E95BFF4F808191810197A4
:1031A000F1F7FE01E95BFF4F9183808388E20E9483
:1031B0003E1BFE01ED5BFF4F80E090E0A0E8BFE327
:1031C00080839183A283B3838E01015C1F4FFE0134
:1031D000ED5BFF4F608171818281938120E030E05F
:1031E0004AEF54E40E941F02DC01CB01F801808306
:1031F0009183A283B383FE01FF96608171818281F6
:10320000938120E030E040E85FE30E947903882367
:103210002CF481E090E09EAF8DAF46C0FE01FF969A
:10322000608171818281938120E03FEF4FE757E415
:103230000E941903181664F5FE01ED5BFF4F6081D3
:1032400071818281938120E030E040E251E40E946C
:103250001F02DC01CB01BC01CD010E944900DC0151
:10326000CB019EAF8DAF0FC088EC90E09CAF8BAFD1
:103270008BAD9CAD0197F1F79CAF8BAF8DAD9EAD43
:1032800001979EAF8DAF8DAD9EAD009769F716C0CB
:10329000FE01FF9660817181828193810E944900C5
:1032A000DC01CB019EAF8DAF8DAD9EAD9AAF89AFE6
:1032B00089AD9AAD0197F1F79AAF89AF88E00E9486
:1032C0003E1B80E090E0A0E8BFE38DAB9EABAFABD0
:1032D000B8AF6DA97EA98FA998AD20E030E04AEF84
:1032E00054E40E941F02DC01CB0189AB9AABABAB6B
:1032F000BCAB69A97AA98BA99CA920E030E040E881
:103300005FE30E94790388232CF481E090E098AB7E
:103310008FA73FC069A97AA98BA99CA920E03FEF9C
:103320004FE757E40E94190318164CF56DA97EA9C2
:103330008FA998AD20E030E040E251E40E941F02E6
:10334000DC01CB01BC01CD010E944900DC01CB01B5
:1033500098AB8FA70FC088EC90E09EA78DA78DA596
:103360009EA50197F1F79EA78DA78FA598A9019714
:1033700098AB8FA78FA598A9009769F714C069A982
:103380007AA98BA99CA90E944900DC01CB0198ABCA
:103390008FA78FA598A99CA78BA78BA59CA5019704
:1033A000F1F79CA78BA781E00E943E1B80E090E094
:1033B000A0EAB0E48FA398A7A9A7BAA76FA178A5A0
:1033C00089A59AA520E030E04AEF54E40E941F024C
:1033D000DC01CB018BA39CA3ADA3BEA36BA17CA1FD
:1033E0008DA19EA120E030E040E85FE30E947903D8
:1033F00088232CF481E090E09AA389A33FC06BA1BD
:103400007CA18DA19EA120E03FEF4FE757E40E94F1
:10341000190318164CF56FA178A589A59AA520E087
:1034200030E040E251E40E941F02DC01CB01BC010C
:10343000CD010E944900DC01CB019AA389A30FC0F2
:1034400088EC90E098A38F8F8F8D98A10197F1F76A
:1034500098A38F8F89A19AA101979AA389A389A183
:103460009AA1009769F714C06BA17CA18DA19EA1C0
:103470000E944900DC01CB019AA389A389A19AA1EA
:103480009E8F8D8F8D8D9E8D0197F1F79E8F8D8FE5
:1034900086E00E943E1B80E090E0A0E8BFE3898FB9
:1034A0009A8FAB8FBC8F698D7A8D8B8D9C8D20E030
:1034B00030E04AEF54E40E941F02DC01CB018D8B07
:1034C0009E8BAF8BB88F6D897E898F89988D20E018
:1034D00030E040E85FE30E94790388232CF481E028
:1034E00090E09C8B8B8B3FC06D897E898F89988DF6
:1034F00020E03FEF4FE757E40E94190318164CF500
:10350000698D7A8D8B8D9C8D20E030E040E251E416
:103510000E941F02DC01CB01BC01CD010E944900C9
:10352000DC01CB019C8B8B8B0FC088EC90E09A8BDD
:10353000898B89899A890197F1F79A8B898B8B8975
:103540009C8901979C8B8B8B8B899C89009769F751
:1035500014C06D897E898F89988D0E944900DC0195
:10356000CB019C8B8B8B8B899C89988B8F878F85CC
:1035700098890197F1F7988B8F878CE00E943E1B0A
:1035800080E090E0A0E8BFE38B879C87AD87BE8793
:103590006B857C858D859E8520E030E04AEF54E484
:1035A0000E941F02DC01CB018F839887A987BA870D
:1035B0006F81788589859A8520E030E040E85FE377
:1035C0000E94790388232CF481E090E09E838D8310
:1035D0003FC06F81788589859A8520E03FEF4FE76E
:1035E00057E40E94190318164CF56B857C858D8570
:1035F0009E8520E030E040E251E40E941F02DC01A1
:10360000CB01BC01CD010E944900DC01CB019E83AE
:103610008D830FC088EC90E09C838B838B819C8191
:103620000197F1F79C838B838D819E8101979E8307
:103630008D838D819E81009769F714C06F81788595
:1036400089859A850E944900DC01CB019E838D8388
:103650008D819E819A83898389819A810197F1F76F
:103660009A838983C457DF4F0FB6F894DEBF0FBE2D
:10367000CDBFCF91DF911F910F910895DF93CF932D
:10368000CDB7DEB76E970FB6F894DEBF0FBECDBFD5
:103690008E8F1D8E8E8D807F982F98608D8D892BBB
:1036A0008D8F8D8D84608D8F8D8D0E945F0D8D8DA2
:1036B0008B7F8D8F8D8D0E945F0D80E090E0A0EA62
:1036C000B0E4898F9A8FAB8FBC8F698D7A8D8B8D8B
:1036D0009C8D20E030E04AEF54E40E941F02DC01A0
:1036E000CB018D8B9E8BAF8BB88F6D897E898F8937
:1036F000988D20E030E040E85FE30E947903882362
:103700002CF481E090E09C8B8B8B3FC06D897E898F
:103710008F89988D20E03FEF4FE757E40E9419030F
:1037200018164CF5698D7A8D8B8D9C8D20E030E0DC
:1037300040E251E40E941F02DC01CB01BC01CD013B
:103740000E944900DC01CB019C8B8B8B0FC088EC65
:1037500090E09A8B898B89899A890197F1F79A8BE6
:10376000898B8B899C8901979C8B8B8B8B899C89FE
:10377000009769F714C06D897E898F89988D0E94A2
:103780004900DC01CB019C8B8B8B8B899C89988BAE
:103790008F878F8598890197F1F7988B8F871D8E7A
:1037A0008E8D882F90E082959295907F9827807FCC
:1037B0009827982F98608D8D892B8D8F8D8D8460A3
:1037C0008D8F8D8D0E945F0D8D8D8B7F8D8F8D8D5B
:1037D0000E945F0D80E090E0A0EAB0E48B879C87B8
:1037E000AD87BE876B857C858D859E8520E030E02A
:1037F0004AEF54E40E941F02DC01CB018F839887BB
:10380000A987BA876F81788589859A8520E030E01D
:1038100040E85FE30E94790388232CF481E090E084
:103820009E838D833FC06F81788589859A8520E04E
:103830003FEF4FE757E40E94190318164CF56B85CC
:103840007C858D859E8520E030E040E251E40E9439
:103850001F02DC01CB01BC01CD010E944900DC014B
:10386000CB019E838D830FC088EC90E09C838B837B
:103870008B819C810197F1F79C838B838D819E8145
:1038800001979E838D838D819E81009769F714C077
:103890006F81788589859A850E944900DC01CB017A
:1038A0009E838D838D819E819A83898389819A816C
:1038B0000197F1F79A8389836E960FB6F894DEBF6D
:1038C0000FBECDBFCF91DF910895DF93CF93CDB7DA
:1038D000DEB76E970FB6F894DEBF0FBECDBF8E8FEA
:1038E0001D8E8E8D807F982F99608D8D892B8D8F69
:1038F0008D8D84608D8F8D8D0E945F0D8D8D8B7F62
:103900008D8F8D8D0E945F0D80E090E0A0EAB0E485
:10391000898F9A8FAB8FBC8F698D7A8D8B8D9C8DA3
:1039200020E030E04AEF54E40E941F02DC01CB01AA
:103930008D8B9E8BAF8BB88F6D897E898F89988D8B
:1039400020E030E040E85FE30E94790388232CF414
:1039500081E090E09C8B8B8B3FC06D897E898F8945
:10396000988D20E03FEF4FE757E40E9419031816A7
:103970004CF5698D7A8D8B8D9C8D20E030E040E296
:1039800051E40E941F02DC01CB01BC01CD010E9469
:103990004900DC01CB019C8B8B8B0FC088EC90E045
:1039A0009A8B898B89899A890197F1F79A8B898BF0
:1039B0008B899C8901979C8B8B8B8B899C89009729
:1039C00069F714C06D897E898F89988D0E9449009E
:1039D000DC01CB019C8B8B8B8B899C89988B8F878F
:1039E0008F8598890197F1F7988B8F871D8E8E8D23
:1039F000882F90E082959295907F9827807F9827D6
:103A0000982F99608D8D892B8D8F8D8D84608D8FF2
:103A10008D8D0E945F0D8D8D8B7F8D8F8D8D0E9482
:103A20005F0D80E090E0A0EAB0E48B879C87AD87D3
:103A3000BE876B857C858D859E8520E030E04AEFD2
:103A400054E40E941F02DC01CB018F839887A98771
:103A5000BA876F81788589859A8520E030E040E8D3
:103A60005FE30E94790388232CF481E090E09E8339
:103A70008D833FC06F81788589859A8520E03FEFEF
:103A80004FE757E40E94190318164CF56B857C85A7
:103A90008D859E8520E030E040E251E40E941F02C7
:103AA000DC01CB01BC01CD010E944900DC01CB014E
:103AB0009E838D830FC088EC90E09C838B838B81E9
:103AC0009C810197F1F79C838B838D819E81019767
:103AD0009E838D838D819E81009769F714C06F81CD
:103AE000788589859A850E944900DC01CB019E83F7
:103AF0008D838D819E819A83898389819A810197A3
:103B0000F1F79A8389836E960FB6F894DEBF0FBEE5
:103B1000CDBFCF91DF910895DF93CF93CDB7DEB7BF
:103B20000E943E0C87E20E94920CCF91DF91089593
:103B3000DF93CF93CDB7DEB70E94150ECF91DF9103
:103B40000895DF93CF93CDB7DEB70E94680C87E26C
:103B50000E94920CCF91DF910895DF93CF930F9243
:103B6000CDB7DEB789838981886089838981846044
:103B7000898389810E945F0D89818B7F89838981F7
:103B80000E945F0D0F90CF91DF910895DF93CF9347
:103B900000D000D000D0CDB7DEB79E838D831982D0
:103BA0001A821B821C8215C029813A818D819E81D7
:103BB000FC01E20FF31F80810E94651C89819A81BC
:103BC000AB81BC810196A11DB11D89839A83AB8312
:103BD000BC8329813A818D819E81FC01E20FF31F14
:103BE0008081882309F726960FB6F894DEBF0FBEB2
:103BF000CDBFCF91DF9108950F931F93DF93CF93A4
:103C0000CDB7DEB72E970FB6F894DEBF0FBECDBF8F
:103C100069877A878B879C875E874D871D821E8286
:103C20001F82188683E190E0A0E0B0E089839A8348
:103C3000AB83BC8329813A818D859E85FC01E20F8F
:103C4000F31F108289819A81AB81BC810197A10900
:103C5000B10989839A83AB83BC8389859A85AB85B7
:103C6000BC85BB230CF04DC081E090E0A0E0B0E04B
:103C70008D839E83AF83B88789859A85AB85BC8504
:103C8000B095A095909581959F4FAF4FBF4F898775
:103C90009A87AB87BC8735C029813A818D859E85FF
:103CA0008C01020F131F89859A85AB85BC852AE09C
:103CB00030E040E050E0BC01CD010E94922ADC01DE
:103CC000CB01805DF801808389819A81AB81BC81C1
:103CD0000197A109B10989839A83AB83BC83898544
:103CE0009A85AB85BC852AE030E040E050E0BC011D
:103CF000CD010E94922ADA01C90189879A87AB8790
:103D0000BC8789859A85AB85BC850097A105B105DF
:103D100019F68D819E81AF81B8850097A105B10507
:103D2000A1F029813A818D859E85FC01E20FF31F68
:103D30008DE2808389819A81AB81BC810197A10941
:103D4000B10989839A83AB83BC8389819A81AB81D2
:103D5000BC810196A11DB11D89839A83AB83BC836D
:103D600029813A818D859E85820F931F2E960FB6ED
:103D7000F894DEBF0FBECDBFCF91DF911F910F91A1
:103D80000895DF93CF93CDB7DEB76A970FB6F89457
:103D9000DEBF0FBECDBF6F8B788F898F9A8F8F89D3
:103DA000988DA98DBA8D0097A105B10599F08F89DD
:103DB000988DA98DBA8D9E012D5F3F4FBC01CD011D
:103DC000A9010E94FC1D9A83898389819A810E949E
:103DD000C61D03C080E30E94651C6A960FB6F89466
:103DE000DEBF0FBECDBFCF91DF910895DF93CF939C
:103DF000CDB7DEB7A6970FB6F894DEBF0FBECDBF26
:103E00006BA37CA38DA39EA36BA17CA18DA19EA17E
:103E100020E030E048EC52E40E941F02DC01CB01BC
:103E2000BC01CD010E94A903DC01CB018B879C87DB
:103E3000AD87BE878B859C85AD85BE859E01215F44
:103E40003F4FBC01CD01A9010E94FC1D9A878987C3
:103E50001D821E821F82188619821A821B821C8272
:103E60000BC08D819E81AF81B8850196A11DB11DCA
:103E70008D839E83AF83B8872D813E8189859A8506
:103E8000FC01E20FF31F8081882359F78D819E8109
:103E9000AF81B8850297A109B1098D839E83AF8355
:103EA000B8878D819E81AF81B8850097A105B10546
:103EB00049F580E30E94651C25C029813A814B8128
:103EC0005C818D819E81AF81B885281739074A07AB
:103ED0005B0719F48EE20E94651C29813A8189856D
:103EE0009A85FC01E20FF31F80810E94651C898185
:103EF0009A81AB81BC810196A11DB11D89839A83F2
:103F0000AB83BC8329813A8189859A85FC01E20FC4
:103F1000F31F8081882389F6A6960FB6F894DEBF3A
:103F20000FBECDBFCF91DF910895DF93CF93CDB773
:103F3000DEB727970FB6F894DEBF0FBECDBF9C83C8
:103F40008B836D834E832F838E816F810E94E21F4E
:103F50008D810E94651C1A8219828D81883030F50E
:103F60008D81882F90E0880F991F880F991F880FE7
:103F7000991F8A838A8180648A838A818F778A8362
:103F80008A810E943E1B19820EC08981282F30E051
:103F90008B819C81FC01E20FF31F80810E94651CD4
:103FA00089818F5F89838981883078F382E00E94DC
:103FB0003E1B27960FB6F894DEBF0FBECDBFCF9144
:103FC000DF910895DF93CF9300D00F92CDB7DEB786
:103FD0008A836B8319828A81882319F48B81898370
:103FE00006C08A81813019F48B81805C8983898144
:103FF0008068898389810E943E1B0F900F900F90EB
:10400000CF91DF910895DF93CF93CDB7DEB780E1F5
:1040100090E20E94F0060E94A906CF91DF910895D8
:10402000DF93CF9300D0CDB7DEB780916C018823AA
:1040300009F080C01A821982809168008F3F51F484
:10404000809168008F5F80936800ECE4F0E011825B
:10405000108270C00E9444079A8389830E943907A6
:1040600089819A812FE0813A920708F04CC08981BA
:104070009A8129E08036920708F589819A8127E0A4
:1040800089309207D8F080915B0190915C01A091FA
:104090005D01B0915E01880F991FAA1FBB1F81604F
:1040A00080935B0190935C01A0935D01B0935E01EE
:1040B000809168008F5F8093680025C089819A8114
:1040C00025E084319207F8F489819A8122E08D3BC2
:1040D0009207C8F080915B0190915C01A0915D0115
:1040E000B0915E01880F991FAA1FBB1F80935B01CF
:1040F00090935C01A0935D01B0935E018091680094
:104100008F5F8093680080916800803299F48FEF10
:104110008093680080915B0190915C01A0915D01AA
:10412000B0915E018093680190936901A0936A0148
:10413000B0936B010F900F90CF91DF910895DF93B3
:10414000CF93CDB7DEB78CE291E090936C00809373
:104150006B0080916B0090916C0021E08D32920792
:1041600050F080916B0090916C008C529140909334
:104170006C0080936B008CE291E090936E008093D2
:104180006D0080916D0090916E0021E08D3292075C
:1041900050F080916D0090916E008C529140909300
:1041A0006E0080936D008CE291E09093700080939C
:1041B0006F0080916F009091700021E08D32920726
:1041C00050F080916F00909170008C5291409093CC
:1041D000700080936F008CE291E090937400809364
:1041E00073008CE291E09093720080937100809153
:1041F00071009091720021E08D32920750F0809111
:104200007100909172008C52914090937200809353
:104210007100CF91DF910895DF93CF93CDB7DEB7D3
:1042200082E06FEF0E94A31281E06FEF0E94A31261
:104230000E94032084E391E20E94820B8CEA99E2BF
:104240000E94350689EF61E045E00E94770989EF19
:104250000E94A30582E591E20E948B0F84E00E94F8
:10426000520ECF91DF910895DF93CF93CDB7DEB794
:104270008091790190917A01019690937A018093CF
:1042800079018091790190917A018D37910539F406
:1042900081E08093670110927A0110927901CF91A9
:1042A000DF910895EF92FF920F931F93DF93CF93C7
:1042B000CDB7DEB7E4E4F0E08081882F90E0880F8E
:1042C000991F82959295907F9827807F98277C01EF
:1042D0000027F7FC0095102F8091730190917401D5
:1042E000A0917501B091760120E43FE140E050E0FB
:1042F000BC01CD010E943D2ADC01CB018E0D9F1D2A
:10430000A01FB11F80936F0190937001A093710162
:10431000B093720180916F0190917001A091710131
:10432000B09172012CE231E040E050E0BC01CD01DF
:104330000E94702ADA01C90180936F019093700185
:10434000A0937101B0937201E4E4F0E01082109246
:1043500073011092740110927501109276011092FF
:10436000750080916601882319F081E080936501D2
:1043700081E0809366018FEA90E090936A008093D9
:10438000690010926C01CF91DF911F910F91FF9006
:10439000EF900895DF93CF9300D0CDB7DEB79A8327
:1043A000898389819A818330910588F089819A81F6
:1043B000880F991F9A83898389819A8104979A83A8
:1043C000898389819A810197F1F79A8389830F9074
:1043D0000F90CF91DF910895DF93CF9300D000D05D
:1043E000CDB7DEB79C838B831A82198209C088EE11
:1043F00093E00E94CA2189819A8101969A838983D8
:1044000029813A818B819C812817390780F30F908D
:104410000F900F900F90CF91DF910895DF93CF937E
:10442000CDB7DEB780916B0090916C0005969093AC
:104430006C0080936B0080916B0090916C0021E088
:104440008D32920750F080916B0090916C008C52ED
:10445000914090936C0080936B0080916B009091E1
:104460006C002CE231E0B9010E945C2A009721F532
:1044700080917100909172000596909372008093E4
:104480007100809171009091720021E08D3292074D
:1044900050F080917100909172008C5291409093F5
:1044A00072008093710080917100909172009093DE
:1044B0006E0080936D001CC020916B0030916C00E9
:1044C000C901880F991F880F991F820F931F2CE233
:1044D00031E0B9010E945C2ACB019C0180917100FE
:1044E00090917200820F931F90936E0080936D00E5
:1044F00080916D0090916E0021E08D32920750F016
:1045000080916D0090916E008C52914090936E005E
:1045100080936D0080916D0090916E002CE231E0EF
:10452000B9010E945C2A009779F580916B00909107
:104530006C002CE231E0B9010E945C2A009749F43A
:1045400080917300909174004996909374008093C9
:104550007300809173009091740021E08D32920776
:1045600050F080917300909174008C529140909320
:104570007400809373008091730090917400909305
:10458000700080936F0022C020916D0030916E000A
:10459000C901880F991F820F931F880F991F880FD9
:1045A000991F880F991F820F931F2CE231E0B901E8
:1045B0000E945C2ACB019C01809173009091740051
:1045C000820F931F9093700080936F0080916F0013
:1045D0009091700021E08D32920750F080916F0031
:1045E000909170008C5291409093700080936F0076
:1045F00080917300909174002AEF30E0B9010E941D
:104600005C2ACB0180935F018091730090917400CC
:1046100029E130E0B9010E945C2ACB012AE030E0B8
:10462000B9010E945C2A8093600180917100909191
:10463000720022E330E0B9010E945C2ACB01809332
:10464000610180916101863011F4109261018091C5
:1046500071009091720025E030E0B9010E945C2A5F
:10466000CB012AE030E0B9010E945C2A809362010C
:1046700080916B0090916C0022E330E0B9010E94C0
:104680005C2ACB018093630180916301863011F431
:104690001092630180916B0090916C0025E030E0F6
:1046A000B9010E945C2ACB012AE030E0B9010E94E6
:1046B0005C2A80936401CF91DF910895DF93CF93BB
:1046C00000D000D0CDB7DEB780916801909169012C
:1046D000A0916A01B0916B0189839A83AB83BC83FB
:1046E00089819A81AB81BC81873628E992072EEFB8
:1046F000A20721E0B20709F482C089819A81AB81C7
:10470000BC81883628E992072EEFA20721E0B20784
:10471000D8F489819A81AB81BC818F3820E79207D8
:104720002EEFA20721E0B20709F486C089819A81A1
:10473000AB81BC81873828E792072EEFA20721E0E2
:10474000B20709F4A7C0ACC089819A81AB81BC8152
:10475000873228ED92072EEFA20721E0B207B9F1C8
:1047600089819A81AB81BC81873028EF92072EEF37
:10477000A20721E0B20709F477C089819A81AB8151
:10478000BC818F3520EA92072EEFA20721E0B20705
:1047900009F086C0809173009091740049969093BF
:1047A0007400809373008091730090917400A1E075
:1047B0008D329A0708F474C0809173009091740050
:1047C0008C529140909374008093730069C08091E3
:1047D0007300909174008A31910550F080917300BC
:1047E000909174004997909374008093730058C01F
:1047F0008CE291E0909374008093730051C080919B
:1048000071009091720005969093720080937100F0
:104810008091710090917200B1E08D329B0708F495
:104820003FC080917100909172008C5291409093A2
:1048300072008093710034C0809171009091720079
:104840008630910550F0809171009091720005972B
:10485000909372008093710023C08CE291E090935A
:104860007200809371001CC080916E018F5F8093F5
:104870006E0180916E01843010F010926E01809173
:104880006E01882F90E0FC01EA58FF4F80818093F1
:10489000790006C080916D0191E0892780936D01B8
:1048A0000F900F900F900F90CF91DF910895DF93AD
:1048B000CF9300D0CDB7DEB78091690090916A00A8
:1048C0009A83898389819A818439910509F485C005
:1048D00089819A8185399105E8F589819A818B349E
:1048E000910528F589819A818734910508F081C066
:1048F00089819A818430910568F489819A81823016
:10490000910508F064C089819A818130910509F48C
:1049100058C080C089819A818430910509F45DC0B6
:1049200089819A818634910509F45DC073C08981BB
:104930009A818035910538F489819A818C3491056A
:1049400008F057C050C089819A818035910509F4DB
:104950004AC060C089819A81813E9105B0F4898105
:104960009A818D3D910508F04AC089819A818839E4
:10497000910509F189819A818839910540F18981F0
:104980009A818C3D910579F145C089819A81863E55
:10499000910530F489819A81823E9105B0F523C05A
:1049A00089819A81863E9105F1F089819A8121E081
:1049B0008832920779F5809177018E638093770131
:1049C00029C0809177018E628093770123C0809106
:1049D00077018A62809377011DC0809177018A6395
:1049E0008093770117C08091770188638093770166
:1049F00011C0809177018062809377010BC0809114
:104A0000770188608093770105C080917701886283
:104A1000809377010F900F90CF91DF9108950F93BE
:104A2000DF93CF9300D000D000D0CDB7DEB79A830C
:104A300089836B834C832D830E8389819A819C01AA
:104A4000215030408091690090916A002817390701
:104A500009F455C089819A819C012F5F3F4F809155
:104A6000690090916A002817390709F448C08091BD
:104A7000690090916A009C01255D3E4F89819A8171
:104A800028173907E1F18091690090916A009C0133
:104A90002B52314089819A812817390781F1898108
:104AA0009A819C01225030408091690090916A0067
:104AB0002817390721F189819A819C012E5F3F4F88
:104AC0008091690090916A0028173907C1F08091A0
:104AD000690090916A009C01265D3E4F89819A8110
:104AE0002817390761F08091690090916A009C0154
:104AF0002A52314089819A812817390769F49091A7
:104B000078018B81892B80937801909177018D8139
:104B1000892B8093770115C02091690030916A003C
:104B200089819A812817390761F4909178018C81E5
:104B3000892B80937801909177018E81892B8093C6
:104B4000770126960FB6F894DEBF0FBECDBFCF918A
:104B5000DF910F910895DF93CF9300D0CDB7DEB7EB
:104B60008091690090916A009A83898389819A81F2
:104B70008A399105C8F589819A818339910508F0B0
:104B800036C189819A8183319105C8F489819A81DE
:104B90008E30910508F0DFC089819A8182309105BD
:104BA00008F444C189819A818730910508F4B5C021
:104BB00089819A818A30910509F48BC037C1898136
:104BC0009A818631910508F431C189819A818B31AE
:104BD000910508F4DEC089819A8189589040873018
:104BE000910508F023C1F3C089819A8121E08F31BA
:104BF0009207E0F489819A8121E08A31920708F0D6
:104C00004AC089819A818D39910508F40FC1898143
:104C10009A81843A910508F4FAC089819A81825177
:104C200091408530910508F001C117C089819A81B2
:104C300021E08232920709F44CC089819A8121E0F7
:104C40008232920708F4F2C089819A81865291409B
:104C50008530910508F0EAC042C080915F01282F9D
:104C600030E08091690090916A00AC01425151405E
:104C7000C901880F991F880F991F820F931F840FF6
:104C8000951FFC01E658FF4F908180917701892B99
:104C900080937701CBC080916001282F30E0809114
:104CA000690090916A00AC014A515140C901880FD6
:104CB000991F880F991F820F931F840F951FFC0166
:104CC000E658FF4F908180917701892B809377017F
:104CD000ADC080917701806580937701A7C08091F6
:104CE0006101282F30E08091690090916A00AC0149
:104CF00046525140C901880F991F880F991F820F92
:104D0000931F840F951FFC01E658FF4F90818091FF
:104D10007701892B8093770189C080916201282FC8
:104D200030E08091690090916A00AC01425050409F
:104D3000C901880F991F880F991F820F931F840F35
:104D4000951FFC01E658FF4F908180917701892BD8
:104D5000809377016BC080916301282F30E08091B0
:104D6000690090916A00AC014E505040C901880F13
:104D7000991F880F991F820F931F840F951FFC01A5
:104D8000E658FF4F908180917701892B80937701BE
:104D90004DC080916401282F30E08091690090918E
:104DA0006A00AC0146515040C901880F991F880F15
:104DB000991F820F931F840F951FFC01E658FF4F28
:104DC000908180917701892B809377012FC080910A
:104DD000690090916A0089589040FC01E85DFE4F9F
:104DE000908180917701892B809377011FC08091FA
:104DF000690090916A0083599040FC01EF5DFE4F7D
:104E0000908180917701892B809377010FC08091E9
:104E1000690090916A008D599040FC01E65EFE4F5A
:104E2000908180917701892B809377010F900F906B
:104E3000CF91DF9108950F93DF93CF93CDB7DEB776
:104E40008091690090916A0025E030E0B9010E94EC
:104E50005C2A0097A9F4809177018068809377019C
:104E60008091690090916A0029E130E0B9010E94C7
:104E70005C2A009729F48091770180648093770100
:104E80000E94572480916B0090916C0060E04FE786
:104E900020E10FE30E940F2580916D0090916E003C
:104EA00060E04FE722E007E00E940F2580916F004D
:104EB0009091700062E04FE720E000E00E940F2533
:104EC000CF91DF910F910895DF93CF9300D0CDB7AD
:104ED000DEB78091690090916A009A838983898105
:104EE0009A818C399105D0F589819A818139910512
:104EF00008F055C189819A8185329105D0F4898164
:104F00009A818A31910508F0F4C089819A818330B1
:104F1000910508F463C189819A818E30910508F466
:104F2000C5C089819A8143978230910508F056C1A6
:104F300094C089819A818A32910508F44FC1898190
:104F40009A818533910508F4F7C089819A81815847
:104F500090408B30910508F041C111C189819A813F
:104F600021E083319207E0F489819A8121E0883041
:104F7000920708F04FC089819A81813A910508F41F
:104F80002DC189819A818C3A910508F418C18981D3
:104F90009A81885F90408B30910508F01FC117C03F
:104FA00089819A8121E08831920708F417C18981AB
:104FB0009A8121E08A31920708F44FC089819A8151
:104FC0008F5191408B30910508F008C14CC0809101
:104FD0005F01482F50E08091690090916A00BC0108
:104FE000685F7040CA01880F991F9C01220F331F10
:104FF000220F331F820F931F840F951F860F971F59
:10500000FC01E455FF4F908180917701892B8093BB
:105010007701E4C080916001482F50E080916900E1
:1050200090916A00BC0168507140CA01880F991FB5
:105030009C01220F331F220F331F820F931F840FF7
:10504000951F860F971FFC01E455FF4F90818091BB
:105050007701892B80937701C1C0809177018462A9
:1050600080937701BBC080916101482F50E080910F
:10507000690090916A00BC016F517140CA01880FAC
:10508000991F9C01220F331F220F331F820F931F82
:10509000840F951F860F971FFC01E455FF4F9081E9
:1050A00080917701892B8093770198C0809162016C
:1050B000482F50E08091690090916A00BC016350D4
:1050C0007040CA01880F991F9C01220F331F220FC5
:1050D000331F820F931F840F951F860F971FFC01AC
:1050E000E455FF4F908180917701892B8093770160
:1050F00075C080916301482F50E0809169009091C4
:105100006A00BC016A517040CA01880F991F9C0156
:10511000220F331F220F331F820F931F840F951FFF
:10512000860F971FFC01E455FF4F90818091770116
:10513000892B8093770152C080916401482F50E001
:105140008091690090916A00BC016A527040CA0166
:10515000880F991F9C01220F331F220F331F820FCC
:10516000931F840F951F860F971FFC01E455FF4F77
:10517000908180917701892B809377012FC0809156
:10518000690090916A0081589040FC01EB5BFE4FF2
:10519000908180917701892B809377011FC0809146
:1051A000690090916A0081599040FC01E65CFE4FD5
:1051B000908180917701892B809377010FC0809136
:1051C000690090916A00815A9040FC01E15DFE4FB8
:1051D000908180917701892B809377010F900F90B8
:1051E000CF91DF9108950F93DF93CF93CDB7DEB7C3
:1051F0008091690090916A0025E030E0B9010E9439
:105200005C2A0097A9F480917701826080937701EE
:105210008091690090916A0029E130E0B9010E9413
:105220005C2A009729F4809177018160809377014F
:1052300080916B0090916C0062E04FE720E000E00D
:105240000E940F2580916D0090916E0068E04CE700
:1052500020E000E00E940F2580916F009091700087
:1052600060E148E720E000E00E940F250E94AB25A6
:10527000CF91DF910F910895DF93CF93CDB7DEB734
:105280009091770182E0692F0E94F212909178014B
:1052900081E0692F0E94F21284EB90E00E94CA2103
:1052A00010927701109278019091770182E0692F36
:1052B0000E94F2129091780181E0692F0E94F2120F
:1052C00080916F0190917001A0917101B091720174
:1052D0009C0180917900882F90E0A901481B590B0F
:1052E000CA01845B90400E94CA218091690090911C
:1052F0006A00019690936A0080936900809169002A
:1053000090916A008F3A910519F41092660112C0CB
:105310008091690090916A0051E08D32950750F0BC
:105320008091690090916A008C52914090936A003C
:105330008093690080916501882359F081E0809312
:1053400066018FEA90E090936A0080936900109262
:105350006501CF91DF910895DF93CF93CDB7DEB78D
:105360008091730190917401A0917501B0917601C3
:105370000196A11DB11D8093730190937401A093B8
:105380007501B0937601CF91DF910895DF93CF93AC
:10539000CDB7DEB78091730190917401A091750132
:1053A000B09176018D379105A105B10540F080914E
:1053B0007500882321F481E0809375000FC08091EF
:1053C0007500882359F0E4E4F0E010821092730134
:1053D000109274011092750110927601CF91DF91B5
:1053E0000895DF93CF93CDB7DEB70E949F200E9430
:1053F0000C2180916C018823D1F4809168019091F7
:105400006901A0916A01B0916B010097A105B105F6
:1054100071F00E945E23109268011092690110924F
:105420006A0110926B0181E080936C0108C0809149
:105430006701882321F0109267010E940E2280915B
:1054400066018823B9F080916D01882399F08091DD
:105450006E01882319F40E941B2709C080916E01F8
:10546000813019F40E94642702C00E94F3280E9430
:105470003C29BFCF0E94C629BCCF629FD001739F39
:10548000F001829FE00DF11D649FE00DF11D929FE0
:10549000F00D839FF00D749FF00D659FF00D99271F
:1054A000729FB00DE11DF91F639FB00DE11DF91F43
:1054B000BD01CF0111240895AA1BBB1B51E107C0F8
:1054C000AA1FBB1FA617B70710F0A61BB70B881F94
:1054D000991F5A95A9F780959095BC01CD01089523
:1054E000A1E21A2EAA1BBB1BFD010DC0AA1FBB1FE8
:1054F000EE1FFF1FA217B307E407F50720F0A21B5A
:10550000B30BE40BF50B661F771F881F991F1A94C6
:1055100069F760957095809590959B01AC01BD01F0
:10552000CF01089597FB092E05260ED057FD04D014
:10553000D7DF0AD0001C38F450954095309521955E
:105540003F4F4F4F5F4F0895F6F7909580957095B8
:1055500061957F4F8F4F9F4F08952F923F924F92AB
:105560005F926F927F928F929F92AF92BF92CF92F3
:10557000DF92EF92FF920F931F93CF93DF93CDB7FC
:10558000DEB7CA1BDB0B0FB6F894DEBF0FBECDBF74
:1055900009942A88398848885F846E847D848C8445
:1055A0009B84AA84B984C884DF80EE80FD800C814E
:1055B0001B81AA81B981CE0FD11D0FB6F894DEBF31
:0C55C0000FBECDBFED010895F894FFCFA1
:1055CC000000000000000000FF01000100010001CC
:1055DC00002C012C010114001414F8888888F800A0
:1055EC000000F8F8B8A8A8A8E8A8A8A8A8F8E0208F
:1055FC002020F8E8A8A8A8B8F8A8A8A8B8808080A7
:10560C0080F8F8A8A8A8F8E8A8A8A8F8FF818181D4
:10561C00818181818181FF00000000000000000079
:10562C0000FF9F919191919191919191F191919113
:10563C0091919191919191FFF01010101010101008
:10564C001010FFF19191919191919191919FFF91F6
:10565C0091919191919191919F8080808080808097
:10566C00808080FFFF919191919191919191FFF1A7
:10567C00919191919191919191FF888888F8888866
:10568C0088F81020402010F8080808F8080808814D
:10569C0081818181FF8181818181FF010204081058
:1056AC0008040201FF0101010101FF0101010101D7
:00000001FF
